:020000040000fa
:080000000002040000000000f2
:020000040000fa
:100008009a0200000c1500001e15000014150000cf
:10001800261500009a0200009a0200009a020000c9
:100028009a0200009a0200009a0200009a02000058
:100038009a0200009a0200009a0200009a02000048
:100048009a0200009a0200009a0200009a02000038
:100058009a0200009a0200009a0200009a02000028
:100068009a0200009a0200009a0200009a02000018
:100078009a0200009a0200009a0200009a02000008
:100088009a0200009a0200009a0200009a020000f8
:100098009a0200009a0200005e1300009a02000013
:1000a8009a0200009a0200009a0200009a020000d8
:1000b8009a0200009a0200009a0200009a020000c8
:1000c8009a0200009a0200009a0200009a020000b8
:1000d8009a0200009a0200009a0200009a020000a8
:1000e8009a0200009a0200009a0200009a02000098
:1000f8009a0200009a0200009a0200009a02000088
:100108009a0200009a0200009a0200009a02000077
:100118009a0200009a0200009a0200009a02000067
:100128009a0200009a0200009a0200009a02000057
:100138009a0200009a0200009a0200009a02000047
:100148009a0200009a0200009a0200009a02000037
:100158009a0200009a0200009a0200009a02000027
:100168009a0200009a0200009a0200009a02000017
:100178009a0200009a0200009a0200009a02000007
:100188009a0200009a0200009a0200009a020000f7
:100198009a0200009a0200009a0200009a020000e7
:1001a8009a0200009a0200009a0200009a020000d7
:1001b8009a0200009a0200009a0200009a020000c7
:1001c8009a0200009a0200009a0200009a020000b7
:1001d8009a0200009a0200009a0200009a020000a7
:1001e8009a0200009a0200009a0200009a02000097
:0801f8009a0200009a020000c7
:020000040000fa
:100208009a0200000c1500001e15000014150000cd
:10021800261500009a0200009a0200009a020000c7
:100228009a0200009a0200009a0200009a02000056
:100238009a0200009a0200009a0200009a02000046
:100248009a0200009a0200009a0200009a02000036
:100258009a0200009a0200009a0200009a02000026
:100268009a0200009a0200009a0200009a02000016
:100278009a0200009a0200009a0200009a02000006
:100288009a0200009a0200009a0200009a020000f6
:100298009a0200009a0200005e1300009a02000011
:1002a8009a0200009a0200009a0200009a020000d6
:1002b8009a0200009a0200009a0200009a020000c6
:1002c8009a0200009a0200009a0200009a020000b6
:1002d8009a0200009a0200009a0200009a020000a6
:1002e8009a0200009a0200009a0200009a02000096
:1002f8009a0200009a0200009a0200009a02000086
:100308009a0200009a0200009a0200009a02000075
:100318009a0200009a0200009a0200009a02000065
:100328009a0200009a0200009a0200009a02000055
:100338009a0200009a0200009a0200009a02000045
:100348009a0200009a0200009a0200009a02000035
:100358009a0200009a0200009a0200009a02000025
:100368009a0200009a0200009a0200009a02000015
:100378009a0200009a0200009a0200009a02000005
:100388009a0200009a0200009a0200009a020000f5
:100398009a0200009a0200009a0200009a020000e5
:1003a8009a0200009a0200009a0200009a020000d5
:1003b8009a0200009a0200009a0200009a020000c5
:1003c8009a0200009a0200009a0200009a020000b5
:1003d8009a0200009a0200009a0200009a020000a5
:1003e8009a0200009a0200009a0200009a02000095
:0803f8009a0200009a020000c5
:020000040000fa
:10040000cf9620000e7f22000e0188000000000021
:10041000000020000000e000020032000001200087
:10042000200288000c000700803921000100200014
:1004300011000700000020000000e0000200320070
:100440000000020000000000721502000000000021
:100450000040da000000fe004440a900a012200085
:100460000000e0000300320000002000a00188002e
:100470004440a80000000600910188008000780038
:100480000000eb0015003700e280400032a0b4000d
:100490009101ba00e280400032a0b4009102ba009b
:1004a000e280400032a0b4000002eb00472bde00e7
:1004b000f507b200602ce10004003a000059eb009f
:1004c0008301e900fdff3e00040037006128e100e0
:1004d000010032000082eb00040007001101ba00a5
:1004e0000200e000e8ff3a00000006003159ba00bf
:1004f0008301e9000c0032002159ba008301e900b0
:10050000080032000400e00003003a00e2804000ee
:1005100032a0b400f5ff370011d9ba008301e90019
:10052000faff3a008100e800e180400032a0b40008
:10053000000006000040da000000fe000a00fa0099
:10054000e20f500022003e00544b8000e10f5200a9
:1005500006003200872320004623200024232000a9
:1005600005232000e08f530004003a00872220007a
:10057000462220002422200005222000000028001e
:100580001500600003003a00800b78000700280087
:10059000958a7300054020009482620001003a00b1
:1005a00014a0a000820278000600370094037800af
:1005b0000710b200fdff3200b103fb00070b78000b
:1005c0008502e900e08f5200f8ff3a00080037008a
:1005d00034002000c0bf9f00e2bf9f00b4bf9f0057
:1005e000d1bf9f006a8057007b0507006fb9970055
:1005f000020078000080fa0000000600889fbe001c
:100600008a9fbe003004be002005be0004044400e2
:1006100085844c0006054d0087854d000898be0076
:100620000a90be000440e10005c8e10006d0e100e8
:1006300007d8e10002003100680040001008e8001f
:100640004f05be004f04be00000006001000fa0077
:10065000889fbe008a9fbe00110020000605be00d4
:100660000404be003002be002003be00c4b79f00d9
:10067000d5b79f00e6b79f00f7b79f00080252006a
:1006800089825a000a035b008b835b0084bf9f0052
:1006900095bf9f00a6bf9f00b7bf9f000498be00f4
:1006a0000698be004fb29700dfb297006fb3970075
:1006b000ffb397000820e10009a8e1000ab0e100bb
:1006c0000bb8e100010039008000eb004f05be00cf
:1006d000108810004f04be000080fa0000000600e1
:1006e0001400fa00889fbe008a9fbe008c9fbe0047
:1006f0000006eb003e000700ccb79f00bcb79f0090
:10070000acb79f009cb79f008cb79f000605be004a
:100710000404be000d0420004fb39700bfb2970041
:10072000860343002fb29700e00f530004003d0002
:100730003d0007000f004000b0ff07000300370036
:10074000390007000f004000c0ff0700cfb297003c
:1007500095bf9f00e08f5200090035002b00070075
:1007600014002000050020006033b8000000720073
:100770008180720002017300838173001c000700f6
:100780000c06e8008d0f5600e3ff3a001fba9700f1
:10079000e00f520005003d000802be000a03be0043
:1007a00000fe2f000f00400094ff07004faa9700a3
:1007b000e00f520008003a000fb497009fb4970072
:1007c0002fb59700bfb59700d8b79f00e9b79f0036
:1007d000fab79f008bbf9f000c0007004f06be00ba
:1007e0004f05be004f04be000080fa000000060066
:1007f000010007000000060090b79f00a1b79f000e
:10080000b2b79f00c3b79f000000060001000700b9
:10081000000006001fb09700afb097003fb19700ef
:10082000cfb19700000006004f2bde00f9ff070054
:1008300086837300858242004f23de00a7b79f00a6
:10084000868272000402420095b79f00ffaa9700bb
:100850004f2bde00858242000602720084b79f00a3
:100860006faa97004f23de000402420086827200c6
:10087000f5af9f004f18de0000027200e5ff070091
:10088000e4af9f0000004000818048000201490061
:10089000838149000802be000a03be00d6ff07009c
:1008a00000fe2f0000000600881f780018002000be
:1008b000881f78008aff07008f87e9004f047800bf
:1008c00000000600801feb0085ff07008f87e9000e
:1008d00000000600889fbe008a9fbe00e00f500007
:1008e000e08f5800e00f5900e08f59000c003d00e8
:1008f0006044b8006055b8000000540081805c007e
:1009000002015d0083815d001800200015000700d2
:1009100008003d00180007000004eb000500370048
:100920000004eb000f00070002003d00120007006a
:1009300018002000dcff0700e00f54000600320022
:100940006022b8006033b8000000520081805a0075
:1009500002015b0083815b004f05be004f04be00b7
:1009600000000600e00f5200e08f5a00e00f5b002d
:10097000e08f5b00000006006044b8006055b800de
:100980000402540085825c0006035d0087835d00dd
:1009900000000600889fbe008a9fbe008c1f780062
:1009a000e00f5000e08f5800e00f5900e08f590031
:1009b0000d003d006044b8006055b8001c002000e8
:1009c0000000540081805c0002015d0083815d00b5
:1009d0000820e10009a8e1000ab0e1000bb8e1003d
:1009e0000d003d00080037000006eb00e00f52004c
:1009f000e08f5a00e00f5b00e08f5b0006003d00d7
:100a00006044b8006055b8000402540085825c0060
:100a100006035d0087835d00aaff0700e00f560014
:100a2000060032006022b8006033b80000005200b7
:100a300081805a0002015b0083815b004f067800d1
:100a40004f05be004f04be0000000600889fbe0098
:100a50008a9fbe008c1f78000006eb00e00f50005c
:100a6000e08f5800e00f5900e08f590007003d006b
:100a70006044b8006055b8001c002000000054001d
:100a800081805c0002015d0083815d00e00f520007
:100a9000e08f5a00e00f5b00e08f5b0007003d0035
:100aa0006044b8006055b8000c00a2000402540075
:100ab00085825c0006035d0087835d000c000700f3
:100ac000e00f5600060032006022b8006033b80024
:100ad0000000520081805a0002015b0083815b00ac
:100ae0004f0678004f05be004f04be000000060010
:100af000889fbe008a9fbe008c9fbe000404b80081
:100b00000506b8008904460060854e000606b80058
:100b10000a054600e0854e000706b8008b05460032
:100b2000040eb800890446000a854e00e0854d0099
:100b3000050eb8000a0546008b854e00060eb8006b
:100b40008b0546000416b8000a0546008b854e004a
:100b50000516b8008b054600041eb8008b0546003c
:100b60000800be000a01be004f06be004f05be00d1
:100b70004f04be00000006000c00fa00889fbe0073
:100b8000f4ff270000047800d4bf9f008004eb002e
:100b900088bf9f0099bf9f00a8bf9f00240c200022
:100ba00078815700b4bf9f00cfb097007080570086
:100bb000070007000fba9700094a78000fba97009c
:100bc000080052004f04be000080fa00000006003a
:100bd000ef03b000889fbe008a9fbe008c9fbe00be
:100be000800678008e1f78000007eb00d1af9f00d1
:100bf000a2b79f0066033700dfa8970054c2b30076
:100c00008100e800d1af9f00844f500006003a00f9
:100c1000010278000006eb0001c3b30000c2b3007c
:100c2000b7c2b3000e0037003d0290000404b200ca
:100c3000040032001d027800004a7800840ee800ab
:100c4000050037000000fb008d0078005c03070002
:100c5000e10f40004e0332000e07e8004c0337005e
:100c600084027800d2c2b30034437800824f53002c
:100c70000900320005003c00804f5300080032009c
:100c8000874f53000c003a0007003700814f530094
:100c900009003a00060037000c30a000f0ff3700d2
:100ca0000c00a000eeff37000c10a000ecff370096
:100cb0000c20a000eaff370062026600010032004b
:100cc0000c00a10068026600010032000c20a100a7
:100cd0000602fb000403b100e90f52000c003e00c5
:100ce000050378000002eb00b603fb006a22b9009e
:100cf0000703b10086027800048243009603fb00dc
:100d00000703b100e98f5300f7ff360008003700f2
:100d10000002eb00a7c2b300874f530004003a0063
:100d2000afb197008502e80043027800a3b79f00a7
:100d30000003eb0096b79f00e6c2b300954f130087
:100d40000c003a000ce0a00064435300d54f1300a0
:100d500003003200050378000000eb0009003700b3
:100d6000afb397008502e80047047800a7b79f005b
:100d700098b79f0005037800090037006a00b900a2
:100d80000080430086027800b603fb000703b10031
:100d9000e98f5300f9ff360090b79f00f5ff370049
:100da000b6427800cac6b300d6af9f008acf5200c1
:100db000250032000f003c0036c6b30086cf52003b
:100dc0009e00320004003c00e0cf5200f5023200e9
:100dd0006b4353000f00370046c6b30086cf520066
:100de000170032006543430086cf5200b2003a003c
:100df0001300370036c7b30086cf52001f00320001
:100e000007003c006443530086cf520014003200b8
:100e10000643e80086cf5200a7003a0013003700cf
:100e200056c7b30086cf5200aa0032006343430086
:100e300086cf5200a0003a00e5779f000d003700f2
:100e4000e5779f00a5003700f0036600050120004c
:100e500001003200050028000c867200d0ff370028
:100e6000e5779f000c60a0009c003700e5779f00ad
:100e70000c50a0000c70a00098003700afb5970090
:100e8000e5779f00cb027800abb79f00b5b79f0016
:100e9000e08f520002003a0061932000b1b79f003a
:100ea0003fb397008002eb00010037008502e800a5
:100eb000e6c37a00e0cf5300fcff3a00c5b79f00bd
:100ec0001fb19700e00f510005003200cfb197002d
:100ed000830f51000200310082027800c5b79f00e5
:100ee000cfb297000004eb00850f520001003600de
:100ef000050452006806660009c2b3000f00320004
:100f0000290037003d0290000404b20004003200c2
:100f10001d027800094a7800840ee80005003700b9
:100f20008d00780000022000a5020700e10f4000bc
:100f3000010032000e07e8000804e900e00f540049
:100f4000f0ff3a000084eb0017003700bd0290006c
:100f50000504b20009003200880278009d03780081
:100f600035437800864b780005047800870ee8004a
:100f7000e04f53000a003a00110037008802780061
:100f80008d0078003500fb0084bf9f0005047800c9
:100f90008b0207000fba9700e10f400008003200f3
:100fa0000e07e800060037000c02780008067800fb
:100fb0003fb49700cfb497005fb59700efb59700a7
:100fc000890278008504e900e08f5200dfff3a00d3
:100fd000b8b79f00c9b79f00dab79f00ebb79f0073
:100fe0000c04780009c2b30004067800e00f560034
:100ff0000f003a00660237003d0290000404b20080
:10100000040032001d027800094a7800840ee800ce
:10101000050037008d0078000002200068020700fc
:10102000e10f4000010032000e07e8000804e9006b
:10103000e00f5400f0ff3a0055023700afb09700c0
:101040007003660041047800a1b79f00cfc4de00a2
:10105000090578008a0578000800be000a01be0074
:101060004800de00c80add0000807200e0779f00c3
:10107000e00f530009003200e04f5000070032003b
:10108000e14f40000500320026002000f0779f006d
:10109000887f9f00c6b79f0003003700170020001d
:1010a000c7b79f00f8779f0078fb2f0008844700a0
:1010b000b8b79f0082ff370069fb2f001a0020009d
:1010c00089844700e5779f00b9b79f00cab79f00a2
:1010d0007bff3700e5779f000c0cb3008c02780093
:1010e000050cb2003b003a00e00f560005003d0041
:1010f000afb297004501be004500be00a5b79f00f6
:101100000f003700f0026600120032002fb4970083
:101110004803be00f69f9f0087a79f00a8b79f00c7
:1011200098029000cfaade0095a79f00a5a79f0078
:101130007f9897008fa097001fa19700afa19700fd
:10114000b0b79f00c1b79f00d2b79f00e3b79f0021
:101150000b003700afb09700c1027800050478009b
:10116000cfc4de00090578008a057800a1b79f008a
:10117000b8b79f00c9b79f00dab79f00ebb79f00d1
:101180003fb09700cfb097005fb19700efb19700e5
:10119000e00f5000e08f5800e00f5900e08f590039
:1011a00032003d006000b8006011b8003fb4970005
:1011b000cfb497005fb59700efb597003c00b30040
:1011c00008045000898458000a0559008b8559008d
:1011d00022003700e00f560005003d00afb2970037
:1011e0004501be004500be00a5b79f000f003700b7
:1011f000f0026600120032002fb497008004eb006a
:101200004803be000005eb0096af9f00a7af9f000c
:10121000b9af9f00caaf9f001fa89700afa8970063
:101220003fa99700cfa99700a8b79f00b0b79f002c
:10123000c1b79f00d2b79f00e3b79f000b003700f4
:10124000afb09700c1027800a1b79f0005047800f5
:10125000090020000a0020000b002000b8b79f0002
:10126000c9b79f00dab79f00ebb79f009fb4970004
:10127000e08f54000d003a001a0020003fb09700a4
:10128000cfb097005fb19700efb197009ab79f007a
:10129000e00f5000e08f5800e00f5900e08f590038
:1012a000020032008000eb0091b79f000c01780033
:1012b00005042000020cb20082b79f00850f510088
:1012c0003400320003003c00e00f510008003200ff
:1012d00048003700050820008fb19700858f510026
:1012e00014003200050c2000858f510041003a00a7
:1012f000c687200015c0b3003600be003601be0010
:101300003fb49700cfb497005fb59700efb5970053
:101310000040e10001c8e10002d0e10003d8e10093
:10132000330039008542e800f4cf5200f2ff3a0062
:101330002f00370015c0b30000012000010020007d
:101340006011b8003fb49700cfb497005fb5970025
:10135000efb597000040e10001c8e10002d0e100d4
:1013600003d8e10022003900490020000000d0002d
:101370008180d2000281d2008381d2008904e900f9
:10138000faff3a008542e800f0cf5200edff3a0044
:101390001700370015c0b3008000200001002000b6
:1013a0006011b8003fb49700cfb497005fb59700c5
:1013b000efb597000040e10001c8e10002d0e10074
:1013c00003d8e1000a003900390020000000d000f5
:1013d0008180d2000281d2008381d2008904e90099
:1013e000faff3a008542e800f5cf5200edff3a00df
:1013f000e5779f006f7597009fb597008a02fb0005
:101400008b8f520002003d00eb779f0004003700f5
:101410001fb09700850f500001003d0095b79f0059
:10142000e00f520003003200e302660001003200c8
:101430000402e9000500240085026600060032006f
:101440009fb09700810f5200020034000102520049
:10145000010037000002eb006f7197008001eb0084
:101460008202fb00f3af9f00850f520002003400a0
:1014700085025200f5af9f00640266003b00320017
:10148000e202660061026600e08f52001100320045
:10149000bd0290000504b200080032009d027800f1
:1014a000b6c2b300e00f52000100320006c3e800ec
:1014b000864a7800850ee80015003700b00220004b
:1014c000e00f5200010032000080e8008d0078003b
:1014d0000c003700e00f52000e0032003d02900079
:1014e0000404b200050032001d02780005c2b300fa
:1014f000054a7800840ee800050037008d0078006a
:10150000000220002e010700e10f40000100320020
:101510000e07e8007faa9700e00f52004f0032004c
:1015200008c3b300840478003d0290000404b200b4
:10153000040032001d027800084a7800840ee8009a
:10154000050037008d007800000320001c01070013
:10155000e10f4000010032000e07e8008904e900b5
:10156000f1ff3a00f9af9f003c003700ffaa970057
:10157000e08f5200140032006802660012003a0048
:1015800008c2b300850478003d0290000404b20054
:10159000040032001d027800084a7800840ee8003a
:1015a000050037008d0078000002200004010700cc
:1015b000e10f4000010032000e07e8008904e90055
:1015c000f1ff3a00f9af9f00e20266006102660097
:1015d000e08f520011003200bd0290000504b200fd
:1015e000080032009d027800b6c2b300e00f52003e
:1015f0000100320006c3e800864a7800850ee80044
:1016000015003700b0022000e00f52000100320048
:101610000080e8008d0078000c003700e00f5200d9
:101620000e0032003d0290000404b20005003200ba
:101630001d02780005c2b300054a7800840ee80058
:10164000050037008d00780000022000dc00070054
:10165000e10f4000010032000e07e8001fb39700c1
:10166000458720000602e900f0046600c223dd0081
:101670000c057800c7a79f000a02b2006323b900d7
:10168000e99f9f00060478004322dd00b8a79f0071
:1016900085024200da9f9f00e5af9f00a30037005c
:1016a0009fb597000fb097008b05e900010420005b
:1016b0009bb79f00810f50007300320003003c0075
:1016c000e00f5000080032007e00370004082000c0
:1016d0000fb19700840f510056003200040c200017
:1016e000840f510077003a00e00f56001f003d00c4
:1016f000efa997003304be002305be003fb097005a
:10170000cfb097005fb19700efb197000802be001d
:101710000a03be0064fc07000802be000a03be0004
:10172000e0779f000000fb00cf80de000101780021
:1017300082017800c5fc07003fb29700cfb2970046
:101740005fb39700efb397000002520081825a0006
:1017500002035b0083835b00b4b79f00c5b79f00a3
:10176000d6b79f00e7b79f002e003700ef9a97008b
:10177000e08f5200220032006fab97003fb297001b
:10178000cfb297003604be002605be000400be009e
:101790000801be0084bf9f00f5b79f000005eb0065
:1017a0000f0107000801be00e0779f000000fb006a
:1017b000cf80de001a0107000fba9700ffb2970032
:1017c0008aaf9f000004520081845a00d8a79f006e
:1017d000e9a79f008004eb00f9a79f005fa0970096
:1017e000efa097007fa197008fa99700b0b79f0047
:1017f000c1b79f00d2b79f00e3b79f000900370031
:10180000efa897003fb1970011027800110009007e
:101810000481d800a4002000110009000480d80031
:10182000e1779f00ef7197000343b000e3779f00db
:101830002400370054922000df9a9700e08f520076
:1018400001003200449120003fb09700cfb09700d4
:101850005fb19700efb197004fa397000603e9002f
:10186000050033008301d1000281d3008180d300c1
:101870000080d300f9ff37006f00600064407800fb
:10188000e0779f000f0037003fb29700cfb297007c
:101890005fb39700efb397003fa497000804e900f7
:1018a000050033008703d1000683d3008582d3006f
:1018b0000482d300f9ff3700674262000443b0009e
:1018c000e4779f003d0290000404b200070032005c
:1018d0009d0278006f729700844a7800850ee800b8
:1018e000e04f520007003a0007003700ef749700fe
:1018f0008d0078000900fb0031000700e10f400077
:10190000010032000e07e8004fa59700bfa5970021
:101910006fa8970064055500e385550068005000e6
:10192000caa79f00bba79f00e0af9f009fb0970092
:10193000e08f50005aff3a0068066600140032003b
:101940007fa99700e00f51001100340008c2b300d6
:10195000820478003d0290000404b20004003200ca
:101960001d027800084a7800840ee8000500370060
:101970008d0078000002200011000700e10f4000f8
:10198000010032000e07e8008904e900f1ff3a0087
:10199000dfa9970013407800e0779f00e04f5000e8
:1019a00095fc3a000e0078004f0778004f06be0005
:1019b0004f05be004f04be00ef03b100000006005b
:1019c000889fbe00010478008084eb0038029000fc
:1019d000e20262003b0032000403780098029000ab
:1019e0000620b20002003a00e08f520035003a00b3
:1019f0000490a0008004780034049800f90fb2002d
:101a0000e08f520002003a00a8029000050c780016
:101a1000ea8f540005003a000408b20003003a00bf
:101a200088007800d0002000e5ff07001802900031
:101a3000d8029000850f52000b0032000402e8002b
:101a400015c0b3001404980018027800094a780001
:101a5000040ce80044962000054a7800ea8f540000
:101a600018003a0005003700094078008800780027
:101a70001700070080047800120037003802900039
:101a80000410b2000f00320018019000a80090006e
:101a900048009000a9fa070018029000840f500037
:101aa00004003200380290000403b30034049800ac
:101ab0008084eb000002eb001404980028029000e0
:101ac000040c7800090078004f04be0000000600f6
:101ad0000200fa00889fbe0001047800a0ff9f006a
:101ae00038029000840278000504b200020032003f
:101af0000000fb0035003700e202620005003a00fa
:101b00000403b30015049800340498000080eb002f
:101b10002e003700d8049000e08f540006003a00f1
:101b200012002000e68057004800900083fa07006a
:101b30001904980023003700a8029000e08f52009b
:101b400008003a00859620000430a0002504980083
:101b5000050c7800340498002500200055049800f6
:101b60001504980018019000a8009000480090000b
:101b700072fa0700280290008082eb00150498009a
:101b8000affa9700054a7800040ce8002ffa970096
:101b9000ea4f52000b003a00380290000410b200e5
:101ba0000800320018019000a80090004800900042
:101bb00062fa07000002eb00a802900014049800eb
:101bc000050c78002ffa97000400fb004f04be00bc
:101bd0000080fa000000060000c0da0000000600e5
:101be0006022b800060220000000d0008180d200f0
:101bf0000482d2008582d2000000a00002025200be
:101c000083825a00030031000202420083824a00ac
:101c10000000a1000603e900f3ff3a0000000600ff
:101c2000020ab900001bb9000200b800810042009e
:081c30008100430000000600e2
:020000040000fa
:101c380058200000636f00006f72000064690000a4
:101c48006e610000746500003a20000030780000e2
:101c5800257800000a0d0000004e00006f200000eb
:101c680041630000746900006f6e000020440000aa
:101c7800657400006563000074650000642000005e
:101c88000d00000052690000676800007420000021
:101c9800537700006970000065200000446500006b
:101ca8007465000063740000656400002020000073
:101cb80020200000537000006565000064200000cb
:101cc800566100006c750000653a00002025000090
:101cd800642000002020000020440000656c000003
:101ce800617900002043000068610000736500000e
:101cf800723a000020250000646d0000730d00009a
:101d0800004c000065660000742000005377000056
:101d180069700000652000004465000074650000db
:101d2800637400006564000020200000202000008b
:101d38002053000070650000656400002056000014
:101d4800616c0000756500003a2000002564000001
:101d58002020000020200000446500006c61000085
:101d6800792000004368000061730000657200007c
:101d78003a200000256400006d7300000d0000008b
:101d8800557000002053000077690000706500005e
:101d9800204400006574000065630000746500005d
:101da80064200000202000002020000020200000e7
:101db8005370000065650000642000005661000053
:101dc8006c750000653a00002025000064200000c2
:101dd8002020000020440000656c000061790000ac
:101de800204300006861000073650000723a00003b
:101df80020250000646d0000730d00000000000045
:101e08005541000052540000322000007265000065
:101e180063650000697600006520000062750000b7
:101e28006666000065720000206f0000766500009d
:101e380072720000756e000020650000727200006a
:101e48006f7200000a0000002a2a00002a20000001
:101e5800493200004331000050550000542c000066
:101e6800204e0000414b0000207200006574000005
:101e7800757200006e650000642000002a2a0000c8
:041e88002a0000002c
:020000040000fa
:101e8c000200fa00000f78001e02780004007800af
:101e9c00010020000200200003002000843e2000ee
:101eac00050020006033b800e5fa07000203be000d
:101ebc000002be0000402200410f20006011b8005b
:101ecc0076fa07000203be000002be00040278008e
:101edc000482e900241088000420200034108800bb
:101eec000002eb00041088000002eb0014108800c4
:101efc0007e2a8000080fa00000006000000fa00cb
:101f0c000602a8000000000034108000610262008c
:101f1c00e00f5200fcff3a000080fa0000000600bf
:101f2c000000fa000642a8000000000034108000f7
:101f3c0064026200e00f5200fcff3a000080fa00dd
:101f4c00000006000200fa00004f78001e02fb00a1
:101f5c0014108800000000004510800004002400cc
:101f6c0004826200e00f5200fbff3a004510800033
:101f7c000400280004826200e00f520002003200cc
:101f8c0080f22800660107000080fa0000000600bd
:101f9c000400fa0020479800000000003410800074
:101fac007f026200e00f5200fcff3a000662a800bc
:101fbc00000000004410800062026200e00f52003a
:101fcc00fcff320004108000044f78000000000079
:101fdc00341080007f026200e00f5200fcff3a00d8
:101fec002e429000614262000482fb00610262009a
:101ffc004522dd0036108000f5fd2f0085026300c0
:10200c0005027200341088000682a800000000004f
:10201c003410800070026200e00f5200fcff3a00a6
:10202c001e427800044078000080fa000000060090
:10203c000200fa00004f780011479800afff07002c
:10204c00e4cfb3001e42620004407800bdff0700dd
:10205c001e409000bbff0700b1ff07000080fa0094
:10206c00000006000800fa0020479800210798009d
:10207c0032079800a1ff0700ae429000e4cfb300f6
:10208c0004c2620004407800aeff07000002eb00bf
:10209c00040f7800070037001e027800ae02900093
:1020ac00048242001442780004407800a5ff070027
:1020bc001e0fe8003e0290009e027800848f5200b2
:1020cc00f5ff350096ff07000080fa0000000600bf
:1020dc000400fa00004f78001107980087ff0700f2
:1020ec001e4278000404a0000440780095ff07000d
:1020fc0010c0b300a6ff0700004278009e029000bb
:10210c00844a780086ff07000080fa000000060071
:10211c000800fa00881f78002047980021079800d3
:10212c003207980075ff07002e4290000404a000af
:10213c000440780083ff07000002eb00040f7800d6
:10214c00080037001e027800ae02900004844200a2
:10215c000040eb008eff070000427800044c780032
:10216c001e0fe8003e0290000402e9009e0f520090
:10217c00f4ff3c001e027800ae0290000484420082
:10218c0010c0b30082ff070000427800044c7800b6
:10219c0063ff07004f0478000080fa00000006007f
:1021ac000000fa0000a02600810120003c0207007c
:1021bc000040eb00ab0007000042780004437800bd
:1021cc0075802000864a78007480200014427800c4
:1021dc000402fb00841f7800c4e12800841f7800ef
:1021ec009080200061fa0700e4875700908020005f
:1021fc00cb00070064802000144278000440780073
:10220c000080fa00000006000000fa0094438000f1
:10221c00050020003600200007002000860f520029
:10222c00878f5a003e003e00046001000300370017
:10223c0005003700160037002700370010e3280090
:10224c00b70007003600370037000700000278009f
:10225c00144088003e0007000002780024408800eb
:10226c002540800014408000851f7800841f780072
:10227c0064e42800841f7800908020003bfa07005b
:10228c00e687570090802000a50007002400370047
:10229c002500070000027800144088002c0007007d
:1022ac000002780024408800254080001440800003
:1022bc00851f7800841f780054e82800841f78005c
:1022cc009080200029fa0700e687570090802000b4
:1022dc00930007001200370013000700000278007b
:1022ec00144088001a00070000027800244088007f
:1022fc002540800014408000851f7800841f7800e2
:10230c0044ec2800841f78009080200017fa070006
:10231c00e687570090802000810007000000000035
:10232c000080fa00000006000000fa0050c0b30064
:10233c004c000700004278000402fb0004408800b7
:10234c0004408000040078000080fa0000000600c1
:10235c000000fa00044080006123b9000082eb0009
:10236c008082eb000602420087824a009600200021
:10237c0007002000860f5200878f5a001f003e0076
:10238c0004600100090037000a0037000b00370019
:10239c000c0037000d0037000e0037000f0037001f
:1023ac00100037001100370012003700441f2000c6
:1023bc0013003700241c20001100370004192000e2
:1023cc000f003700e41520000d003700c412200068
:1023dc000b003700a40f200009003700840c2000ec
:1023ec000700370064092000050037004406200070
:1023fc000300370024032000010037000002eb002b
:10240c00040078000080fa00000006000000fa00ca
:10241c00f1c3b30010c0b3000500070011c8b3002e
:10242c0020c0b300020007000080fa000000060084
:10243c000400fa0020479800314798002e42900083
:10244c00044f78003e429000144798002200200070
:10245c008e00780000c2b30002ff07000080fa0073
:10246c00000006000400fa0020479800ae409000df
:10247c0000c2b300eefe07001e02fb0084007800d1
:10248c0000c2b30012ff07001e427800044078001f
:10249c000080fa00000006000000fa00048028000a
:1024ac008411880004402a009411880087c0a90078
:1024bc00940580000480a0000490a10004a0a10059
:1024cc009405880097c0a80034032000c41188002c
:1024dc000002eb00a41188000002eb00b41188008c
:1024ec003342a8000080fa00000006000200fa0047
:1024fc00004f78000000000095118000042020009f
:10250c0004826200e00f5200fbff3a009e4278000a
:10251c000582fb00a41188000080fa000000060070
:10252c000400fa00100798000002eb00040f78007a
:10253c00070037001e0278009e02900004824200c1
:10254c001442780004407800e8ff07001e0fe800f2
:10255c001e0278009e029000048242001442780011
:10256c00e04f5200f3ff3a000080fa000000060032
:10257c000800fa0020079800310798003e029000ee
:10258c00e00f520002003a000002eb001e00370080
:10259c000002eb00040f7800130037001d00070049
:1025ac0000427800244798002e429000ea4f5200d7
:1025bc00110032002e429000ed4f52000e003200fe
:1025cc002e429000e04f52000b003200ae429000c1
:1025dc002e029000054a78002e0290000402e800ba
:1025ec00240798001e0fe8003e0290009e0278001f
:1025fc00848f5200e9ff39002e0290008042eb00dc
:10260c00054a78001e027800040078000080fa0069
:10261c00000006000200fa00000000007543800074
:10262c0064438000848f5200fcff320010000700ce
:10263c00644380000402e800644388006443800023
:10264c00ef0f5200020034000002eb0064438800dc
:10265c0065438000c485200004824200144f78003a
:10266c001e427800044078000080fa00000006004a
:10267c000000fa007543800064438000848f520090
:10268c0002003a0040f02800a5ff070094118000da
:10269c0062026200e00f5200030032003222a900f5
:1026ac0040f028009eff07000080fa0000000600a2
:1026bc003600f800809fbe00829fbe00849fbe0043
:1026cc00869fbe000000fa00744380000402e800fc
:1026dc007443880074438000ef0f520002003400f2
:1026ec000002eb0074438800e1ff07007643800092
:1026fc00b411800084427800c48520000402430099
:10270c00054a780087c0a9000080fa004f03be007c
:10271c004f02be004f01be004f00be003600f90054
:04272c000040060063
:020000040000fa
:10273000700800000200000002000000ffff00001f
:102740003c08000020000000000000005c080000c1
:1027500014000000000000007208000002000000e9
:102760000200000002000000000800003c00000021
:1027700000000000140900002a0000000200000010
:1027800030313200333435003637380039414200b9
:1027900043444500460030003132330034353600c2
:1027a00037383900616263006465660000286e0096
:1027b000756c6c002900000074080000a000000087
:1027c00002000000010000000000000000000a00fc
:1027d0000000000000000000006400000000000095
:1027e00000000000e80300000000000000001000ee
:1027f000270000000000000000a08600010000008b
:102800000000000040420f000000000000008000b7
:1028100096980000000000000000e100f5050000af
:102820000000000000ca9a003b0000000000000009
:10283000e40b5400020000000000e8007648170096
:10284000000000000010a500d4e800000000000017
:10285000a0724e0018090000000040007a10f3003a
:102860005a0000000080c600a47e8d000300000016
:1028700000c16f00f2862300000000008a5d78002e
:102880004563010000006400a7b3b600e00d00003e
:1028900000e889000423c7008a0000003e09000008
:1028a0002400000002000000660900000066090024
:1028b000090000000002000068090000006809002b
:1028c0000e020100000000000000000000000000f7
:1028d0000602020000000000620900000200000081
:1028e000020000003e090000640900000200000030
:1028f0000000000066090000020000000000000067
:102900006809000002000000000000006a090000e1
:1029100002000000020000000100000000000000b2
:020000040000fa
:102920000000fa000002eb00241688000002eb0011
:10293000541688000002eb00841688000002eb00a9
:10294000b41688000002eb00e41688000002eb00d9
:10295000141788000002eb0044178800f46f2c0065
:10296000041688000082eb0034168800e4012f0072
:10297000641688000082eb0094168800f43f200063
:10298000c4168800f41f2300f4168800f43c2f00be
:10299000241788000002eb00440388000002eb00cb
:1029a000540388000002eb00043688000002eb00ac
:1029b000343688000002eb00643688000002eb0029
:1029c000943688000002eb00c43688000002eb0059
:1029d000f43688000002eb0024378800040c200045
:1029e000641988000080fa0000000600000f7800db
:1029f0001e02780084438800ffff37000000fa00c1
:102a0000c4832000840778004485200004018800e6
:102a10000080fa00000006003600f8008020a900bf
:102a20000000eb00f1ff07003600f800f3ff07009d
:102a30008040a90010002000ecff07003600f800dd
:102a40008060a90020002000e8ff07003600f800a1
:102a50008080a90030002000e4ff07000000fa0099
:102a6000afff070026000700020007000080fa0001
:102a7000000006000000fa000003eb0064042000e0
:102a80007505200027742000844b7800854b780062
:102a9000864b780004002300243a88000002eb00f3
:0c2aa000443a88000080fa0000000600a4
:020000040000fa
:102aac00f03fb1000180b10006003500ee030900d3
:102abc0000000000403fb1000180b100fbff3d0071
:102acc001000b000203fb00002003500008009006b
:082adc000000000000000600ec
:020000040000fa
:102ae4000000fa00dcff07006dfe0700001920005b
:102af400e5fc0700acfd0700feff37000000fa000c
:082b04000080fa000000060049
:020000040000fa
:020000040002f8
:04aff800bff900009d
:020000040000fa
:020000040002f8
:04affc007f3f000093
:00000001FF
